:020000040000FA
:1000000080080020250200006502000009020000AF
:10001000690200006B0200006D0200000000000099
:100020000000000000000000000000006F0200005F
:100030007102000000000000730200007502000061
:1000400077020000770200007702000077020000CC
:1000500077020000770200007702000077020000BC
:1000600077020000770200007702000077020000AC
:10007000770200007702000077020000770200009C
:10008000770200007702000077020000770200008C
:10009000770200007702000077020000770200007C
:1000A000770200007702000077020000770200006C
:1000B000770200007702000077020000770200005C
:1000C00077020000D11200007702000077020000E2
:1000D0002913000077020000D50C00007702000011
:1000E000770200007702000077020000770200002C
:1000F000770200007702000077020000770200001C
:10010000770200007702000077020000770200000B
:1001100077020000770200007702000077020000FB
:1001200077020000770200007702000077020000EB
:1001300077020000770200007702000077020000DB
:1001400077020000770200007702000077020000CB
:1001500077020000770200007702000077020000BB
:1001600077020000770200007702000077020000AB
:10017000770200007702000077020000770200009B
:10018000770200007702000077020000770200008B
:10019000770200007702000077020000770200007B
:1001A000770200007702000077020000770200006B
:1001B000770200007702000077020000770200005B
:1001C000770200007702000077020000770200004B
:1001D000770200007702000077020000770200003B
:1001E000770200007702000077020000770200002B
:1001F00077020000DFF80CD000F0B6FA00480047A4
:10020000212500008008002004207146084202D009
:10021000EFF3098001E0EFF308807146004A1047D0
:10022000AD0C000014484FF0590101604FF0160169
:1002300001604FF0880101601048416841F480413D
:1002400041600F48416841F002014160416841F05E
:10025000040141600B48804707484FF000010160EE
:1002600009480047FEE7FEE7FEE7FEE7FEE7FEE798
:10027000FEE7FEE7FEE7FEE7000100400002004067
:100280000070004039110000F501000040EA010350
:100290009B0703D009E008C9121F08C0042AFAD23C
:1002A00003E011F8013B00F8013B521EF9D2704700
:1002B0002DE9FE4F81EA030404F0004421F00041DF
:1002C00000944FF0000B23F0004350EA01045ED08D
:1002D00052EA03045BD0C3F30A54C1F30A552C4419
:1002E000A4F2F3340194A0FB0254C1F3130141F4CE
:1002F0008011C3F3130343F4801301FB024400FB9A
:10030000034E840A970A44EA815447EA8357A4FBC0
:10031000076802958D0A05FB07854FEA932C04FBBD
:100320000C542705029D4FEA065847EA1637B5EBED
:1003300008056EEB070C870E920E47EA811742EA1A
:100340008312A7FB0201B6EB0B0164EB00042B0D3B
:1003500043EA0C335E1844EB1C50DA465146E7FB87
:100360000201C5F313044FEA0B3343EA14534FEA77
:100370000432019C43EA0603A4F10C040294009C9D
:10038000CDE900B400F0CBF803B0BDE8F08F002059
:100390000146F9E72DE9F04D81EA030404F0004B32
:1003A00021F0004514464FF0000A23F0004150EAC6
:1003B000050220D054EA01021DD0C5F30A570246B7
:1003C000C5F31303C1F31300C1F30A5640F48015BB
:1003D00043F48013A7EB0608101BD64608F2FD383D
:1003E00073EB050002D308F1010801E092185B41AC
:1003F000B8F1000F03DA00200146BDE8F08D0020BF
:100400004FF48011064684460EE0171B73EB050778
:1004100005D3121B63EB050306434CEA010C4908A4
:100420004FEA300092185B4150EA0107EDD152EAE1
:10043000030012D082EA040083EA0501084305D0D4
:10044000101BAB4106D20122002306E000224FF030
:10045000004302E06FF0010253101AEB06004CEB70
:10046000085110EB0A0041EB0B01BDE8F04D00F024
:1004700047B830B50B46014600202022012409E090
:1004800021FA02F59D4205D303FA02F5491B04FA4D
:1004900002F52844151EA2F10102F1DC30BD2DE960
:1004A000F05F0546002092469B46884606468146F8
:1004B00040241BE0284641464746224600F075F995
:1004C00053465A46C01A914110D311461846224647
:1004D00000F05CF92D1A67EB01084F462246012017
:1004E000002100F053F917EB00094E41201EA4F142
:1004F0000104DFDC484631462A464346BDE8F09F0A
:1005000010B5141E73F1000408DA401C41F100011B
:1005100092185B411A4301D120F0010010BD2DE972
:10052000F04D92469B4611B1B1FA81F202E0B0FA69
:1005300080F22032904600F029F904460F4640EA46
:100540000A0041EA0B0153465A46084313D01146AC
:1005500053EA010019D0C8F14002504600F025F9D5
:1005600005460E4650465946424600F00FF90843EC
:1005700005D0012004E020463946BDE8F08D00207A
:10058000054346EAE0762C4337430A986305E40ABC
:10059000A0EB08000022FD0A44EA47540A3002D5C5
:1005A00000200146E9E7010510196941DDE9084528
:1005B00000196941BDE8F04DA2E72DE9FE4F8046E4
:1005C00081EA0300C00F0C46009021F0004123F0A7
:1005D0000045B8EB0200A94105D2404621469046AD
:1005E0001C460B46024623F00040104347D0270D1F
:1005F000C7F30A00C3F30A510290401A0190402841
:100600006BDAC3F3130040F4801B0098924620B1CC
:100610000023D2EB030A63EB0B0B01985946C0F1A0
:100620004002504600F0B2F806460D465046594684
:10063000019A00F0CAF810EB08006141002487EA33
:10064000115284EAE7731A4340D0009A62B3019AC8
:10065000012A4FEA075215DC001B61EB02014FF043
:10066000004202EA0752CDE90042001C41F5801128
:1006700032462B46FFF753FF03B0BDE8F08F4046EC
:100680002146F9E7001B61EB0201001C41F58013D4
:1006900000185B412018A2F5001747EB030140EA60
:1006A000D570B6196D4111E06D084FEA360645EA7E
:1006B000C0754FEA0752001B61EB0201001C41F5B7
:1006C000801149084FEA30000019514132462B464B
:1006D00003B0BDE8F04FFFF713BF009801224000C0
:1006E0000023D0EB020263EBE073009821464FEA4F
:1006F000E074B8EB000061EB0401E9E783F000432C
:100700005BE781F0004158E7C1F30A52C1F31301DE
:1007100040F2FF3341F480119A4202DA0020014690
:10072000704740F233439A42A2F2334202DC524213
:1007300000F03BB800F02AB830B5041E71F1000497
:1007400004DB4FF00044404264EB0101141E73F1DE
:10075000000405DB1C464FF00043524263EB0403E8
:10076000994208BF904230BD064C074D06E0E06854
:1007700040F0010394E8070098471034AC42F6D3E8
:10078000FFF73CFD4426000064260000202A04DB1D
:10079000203A00FA02F1002070479140C2F1200394
:1007A00020FA03F3194390407047202A04DB203AD3
:1007B00021FA02F00021704721FA02F3D040C2F181
:1007C00020029140084319467047202A06DBCB17C8
:1007D000203A41FA02F043EAE07306E041FA02F3FC
:1007E000D040C2F1200291400843194670474FF0B3
:1007F0008040D0F8401241F48031C0F84012704778
:1008000000F01F0201219140034A800F02EB80009B
:1008100002680A4302607047040200402DE9F84F65
:100820000D460446FFF7E3FF4FF08040484ED0F8F6
:100830000012C4B141F00401C0F80012102000F011
:1008400009FA4FF400200090424843492844B34637
:1008500088426DD84FF000094FF0FF324F464E46A8
:10086000AE46012015E041F00101C0F80012012060
:1008700000F0F0F90020E6E7F2B3032839D00428AD
:1008800002D0022805D102E04FEA8E0501E04FEACE
:100890004E0502236AB3BBFBF3F1304CDFF8BCC05A
:1008A0000C44CCF1000C644520D80224C1F35D0A4D
:1008B000DFF8A0C00AFB04F101EB0C08DFF8A0C0D0
:1008C000E0450ED8B1EB950F02D9A1EB950101E0FF
:1008D000C1EB9501914204D20A009946274606468B
:1008E00004D040F20121641C8C42E1D95B1C202B16
:1008F000D0D9401C042800E000E0BDD91948009977
:1009000000EB8630184A084302EB49210843B91E20
:1009100008434FF08041C1F84002042000F09AF9EA
:1009200006FB09F6BBFBF6F078434000BDE8F88F04
:100930005CB10E494FF08040C0F84012042000F036
:1009400089F9BDE8F84F00F09FB844F21E21F1E7A5
:10095000001BB700800F05FD8074D21A00F7C2FF9C
:10096000C068780400C0FFFF00FEFFFF1E420800C1
:100970004FF08041D1F800220243C1F800227047B5
:1009800010B500F0B5FB0148006810BD0000002064
:100990004FF08040D0F80002C00700D000487047F8
:1009A000001BB7004FF08040D0F80002800702D54E
:1009B0004FF40040704700207047000010B500F071
:1009C00097FB4FF08041D1F834024207134817D00B
:1009D000D1F8342202F00702012A13D0D1F83422D0
:1009E00002F00702022A10D0D1F8342202F00702E6
:1009F000032A0DD0D1F8341201F0070104290AD0DE
:100A0000006810BD0068400810BD0068800810BD77
:100A10000068C00810BD0068000910BD000000207B
:100A200010B500F065FB4FF08041D1F8340210F0B2
:100A3000700F144817D0D1F83422C2F30212012AE1
:100A400013D0D1F83422C2F30212022A10D0D1F806
:100A50003422C2F30212032A0DD0D1F83412C1F3AA
:100A6000021104290AD0006810BD0068400810BDBA
:100A70000068800810BD0068C00810BD006800094B
:100A800010BD00000000002008B510A1002009687A
:100A900000914FF08041D1F8401211F4A02F13D1F2
:100AA0000B488A0310D4C1F30800C1F38132094B0B
:100AB000801C1DF80220C1F344215843491C11FB3E
:100AC00002F1B0FBF1F0C00008BD00000102020419
:100AD000001BB700C0C62D0070B54FF0804406461D
:100AE000D4F8500200F010051B48864200D9064693
:100AF000D4F8000240F00400C4F80002102004F50D
:100B0000007400F0A7F8206940F007002061206A17
:100B100020F00F0020622068A4F50074C007314661
:100B200004D00020FFF77AFE064608E04FF40020CC
:100B3000FFF774FE0646D4F8500200F010050021BD
:100B4000022000F00BF82DB9D4F8000220F00400C8
:100B5000C4F80002304670BD00B0710B2DE9F041C1
:100B60004FF080440746D4F850020E4600F01005BE
:100B7000D4F8000240F00400C4F80002102004F58C
:100B8000007400F067F8206940F007002061206AD7
:100B900020F00F0030432062206920F00700384326
:100BA0002061A4F5007400F0A3FA002D05D1D4F85B
:100BB000000220F00400C4F80002BDE8F08100004B
:100BC000F0B510F47F3F2ED04FF08043D3F8F431CE
:100BD000DFF878C0DFB21D4BC0F381440C3B6FEAF5
:100BE00090450CF1040603EB8403012F02D0022C84
:100BF0000DD001E0022C02D0AC070AD00AE0C343BA
:100C0000DC06134B06D000F01F041D2C02D06346F7
:100C100000E033461C68C0F38725C0F34416B54096
:100C2000AC4314431C60420E52070ED0084BC0F375
:100C30000172183B03EB82021368C0F34264C0F3F5
:100C400004508440A3430B431360F0BD2C020040CA
:100C50002802004030B5012405460849A20705E0F6
:100C6000081EA1F1010101DC002404E0D2F8503299
:100C700035EA0300F4D1204630BD000080F52000A5
:100C8000F0B500230127032507FA03F48C4309D1AB
:100C900006685C0005FA04FC26EA0C0602FA04F475
:100CA000264306605B1C102BEED3F0BD044603A068
:100CB00000F0C4FC204601F049FCFEE7496E2048E4
:100CC000617264204661756C742048616E646C6565
:100CD000720A00000749C8684A69D243D20705D0A2
:100CE00005498A68002A04D089680847084600F048
:100CF00033B87047000008407000002010B50E485F
:100D000000F0DAF90E4C0D49204600F045F80023BA
:100D1000D6221946204600F061F8204600F026F859
:100D2000014608A000F08AFC204600F01AF8BDE851
:100D30001040262000F064B908000004A0860100DD
:100D40000000084049324320636C6F636B202564C8
:100D500020487A0A00000000416941F00101416128
:100D60007047016841F080010160704710B5046967
:100D70000649884202D1FFF753FE01E0FFF71EFE4D
:100D8000A100091DB0FBF1F010BD000000100840EB
:100D90008068C0B27047000070B504460E480D462A
:100DA000844202D1FFF73CFE01E0FFF707FE00EBB3
:100DB00080014900AA00B1FBF2F10A22491DB1FBF2
:100DC000F2F14A1E2261226842F04002226089004C
:100DD000B0FBF1F070BD00000010084043EA420291
:100DE000012905D0022905D0032905D042607047AA
:100DF00082617047C26170470262704770B52E4DC4
:100E00002E4C082818D0182819D020281CD00126CC
:100E100028281FD010282DD040282FD0502831D07E
:100E2000582810D12046FFF7B3FFA978EA680A4492
:100E3000491CA970107015E06878400000E028791E
:100E4000A06033E0206070BD206820F03C0040F0DE
:100E50003800F7E7E87828B1206820F03C0040F03F
:100E60002800EFE7206820F03C0040F018002060E8
:100E70002E7070BD687806EB4000E1E7E878012845
:100E80000ED813E02046FFF783FFA978EA680A44EA
:100E9000491CA9701070A978E878401E814205DAD3
:100EA000206820F03C0040F00C00CBE7206820F0E8
:100EB0003C0040F00800C5E770000020000008403A
:100EC0002249234A082815D0182816D020281DD0DA
:100ED000282821D0382833D0002816D1086820F0DF
:100EE0003C0040F01C000860086820F03C0040F026
:100EF0000C0009E05078400000E010798860086834
:100F000020F03C0040F0080008607047086820F0BE
:100F10003C0040F03800F7E79078D378984206D24A
:100F20009078D3680344401C90701878E6E708680E
:100F300020F03C0040F0180008600120107070475D
:100F4000086820F03C0040F02C00DDE7000008407D
:100F50007000002010B50A4C6070E3702171002011
:100F6000E2602070A0700748A0600748016821F087
:100F70003C0141F02001016020780028FCD010BD28
:100F800070000020FD0D00000000084010B50B4C63
:100F90006070E37021710021E260A1702170084847
:100FA000A0600848026822F03C0242F02002026081
:100FB00020780028FCD0217010BD000070000020B7
:100FC000C10E00000000084010B5094C0122114676
:100FD0002046FFF755FE012202212046FFF750FE72
:100FE00020460122BDE810400421FFF749BE000061
:100FF000C041004001E0401E80B20028FBD1704794
:1010000000F01F02012191404009800000F1E02022
:10101000C0F800117047000070B5592084071621F0
:101020008822C4F80001C4F80011C4F80021D4F8E3
:101030000031002BF5D04FF04020D0F8401121F0C6
:10104000F001C0F840110120FFF792FC0120FFF7EA
:1010500001FE1648FFF740FD1120C4F83402144D7C
:101060002846FFF7CDFB002211462846FFF7A8FDD2
:101070001048FFF7C5FB0120FFF7C2FB00F098F80E
:1010800000F0A6F800F034F8E06B20F47F00E06395
:10109000E06B40F4CC00E063206B20F47F0040F470
:1010A000190020630020C4F8000170BD00B0710B6E
:1010B000103D8057080000400121044A814002EBA6
:1010C000106002680A438A430260704708000040CB
:1010D00006498A691202FCD40A2804D10D220A604A
:1010E0008A691202FCD408607047000000000740C3
:1010F00010B5FFF7C9FC0E4A4FF080439060D3F85B
:10110000101201F00701022903D002F10C0050F87F
:101110002100D3F8201201F00F01491CB0FBF1F0BF
:101120000449106008444900B0FBF1F0506010BD64
:101130000000002020A107001A48016841F4700156
:1011400001601948C16C21F00F0141F00801C16430
:101150004FF08040D0F8981241F48021C0F89812E6
:10116000D0F8081241F00201C0F808120F49D1F876
:10117000042102F0F732C1F80421D1F8082102F06D
:10118000F732C1F80821D0F8081221F00201C0F8A6
:1011900008124FF04020D0F8401121F0F001C0F8C3
:1011A0004011704788ED00E000C00040001004408E
:1011B00010B5064C2046FFF723FB2046BDE8104043
:1011C00000224FF40071FFF7FBBC00000200805EBC
:1011D00010B5064C2046FFF713FB2046BDE8104033
:1011E00000224FF4E041FFF7EBBC00000300C05EBB
:1011F00010B50A4C4FF47A724FF00061204600F0AF
:101200004BF8206840F0005020602120FFF7F8FEE6
:10121000206840F08040206010BD000000010540C3
:1012200010B588B00446202217496846FFF72EF80B
:10123000164A174B9003944204D1D0F81402C0F31D
:10124000022110E09C4204D1D0F81402C0F3023114
:1012500009E01049D0F814028C4202D1C0F30241D7
:1012600001E0C0F30251022903D05DF8210008B06B
:1012700010BD944201D09C4202D1FFF79FFBF6E7DC
:10128000FFF7CEFBF3E70000242600000000054036
:10129000000105400010054070B516460D46044695
:1012A000FFF7BEFF0023B6EB500F01D9022206E084
:1012B000B0FBF6F2130E02D0591CB2FBF1F21D4343
:1012C000256062605B1C5A43B0FBF2F070BD000009
:1012D00011488168C1F3000100291CD001218160FF
:1012E0000E4900230888421C0A80B0F57A7F05D990
:1012F0000B480B80026882F0010202604888421CA1
:101300004A8042F21072904205D306484B80017821
:1013100081F001010170704700010540300000209C
:10132000C84900403400002010B50B4CE06910F4AF
:10133000885F02D104E000F049F9A1694904FAD5B7
:10134000A169204611F0710F05D0BDE810404FF49F
:10135000105100F087B810BD0000074010B51E48BE
:10136000FFF7AAFE1D4C4FF4E131204600F098F83B
:101370001421204600F020F9A06820F01000A060A1
:10138000A06840F02000A060606840F611010843AA
:1013900060602420FFF734FEFFF7F2FA014610A048
:1013A00000F04CF9FFF7F4FA014614A000F046F9FA
:1013B000FFF7F8FA014617A000F040F9FFF7FEFA30
:1013C00001461AA000F03AF9FFF72AFB0146BDE8F2
:1013D00010401DA000F032B91000000400000740CA
:1013E0000D0A434C4B5F4765744350554672657117
:1013F000203A202538640D0A00000000434C4B5F62
:1014000047657448585446726571203A20253864FF
:101410000D0A0000434C4B5F4765744C58544672AC
:101420006571203A202538640D0A0000434C4B5F5B
:1014300047657450434C4B3046726571203A202505
:1014400038640D0A00000000434C4B5F4765745040
:10145000434C4B3146726571203A202538640D0AA1
:10146000000000004A0503D57022826108228261D3
:101470000A0503D5426942F0010242618A0401D59E
:10148000064A82614A0401D51F224264090404D538
:101490008021C16140F20F3181637047010000017A
:1014A0002DE9FF4104463C480F4600250FC88DE852
:1014B0000F003A492E464FF080408C4206D1D0F8BA
:1014C0001412D0F82002C1F301652AE034498C429D
:1014D00006D1D0F81412D0F82002C1F381652BE0B8
:1014E00030498C4208D1D0F81C12D0F83002C1F338
:1014F000016500F00F0621E02B498C4208D1D0F89D
:101500001C12D0F83002C1F38165C0F3031615E058
:1015100026498C4208D1D0F81C12D0F83002C1F311
:101520000175C0F3032609E021498C4206D1D0F8A9
:101530001C12D0F830028D0FC0F303360020206358
:101540000320E060A0681B490840A060E846012D28
:1015500002D1FFF799FA0190002F1AD058F8251000
:10156000761CB1FBF6F000EB5700B0FBF7F0801EE5
:10157000B0F5803F0AD3B1FBF6F000EBC700B0FB3B
:10158000F7F06FF0010101EB101001E040F0405066
:101590006062BDE8FF810000F42500000000074004
:1015A000001007400020074000300740004007407F
:1015B000005007400FFFF0FF026A22F0FF020A43CB
:1015C0000262416841F4006141607047114800685F
:1015D000C0B27F2801D910A019E05A2809D004DC34
:1015E000312813D0582814D103E0782801D07A2864
:1015F0000FD1BFF34F8F0D4801680D4A01F4E06130
:1016000011430160BFF34F8F00BFFDE709A000F059
:1016100015B8704700000740696E76616C696420F8
:10162000636F6D6D616E640D0A0000000CED00E0EB
:101630000400FA052E2E2E0D0A0D0A000FB4054BDC
:1016400010B503A9044A029800F0DAF810BC5DF85E
:1016500014FB0000132500002C00002002E008C845
:10166000121F08C1002AFAD170477047002001E01C
:1016700001C1121F002AFBD1704700002DE9FF5F56
:1016800082B00021DDE90430020DDDF840B00343F3
:1016900018D044F61050A2F2FF32424315141198AC
:1016A00001281FD0A5EB0B00401C5FEA000A4FF099
:1016B00000064E4FDFF83891B046504615D5CAF1B6
:1016C000000413E0119801244AA3012801D16FEA14
:1016D0000B010298119AC0E90031C0E9024206B03C
:1016E000BDE8F09FCBF10000DFE704460021404A4F
:1016F000491842EB0450CDE9001012E0E00707D092
:1017000032463B4640464946FEF7D2FD8046894672
:1017100032463B4610461946FEF7CAFD06460F46BE
:101720006410002CEAD1DDE90401DDE90023BAF1FF
:10173000000F06DAFEF7BCFD42464B46FEF7B8FD49
:1017400005E0FEF727FE42464B46FEF723FE044621
:101750000E460022284BFEF7EFFF03D84FF0FF3074
:10176000014607E00022254B20463146FEF725FFC3
:10177000FEF7CAFF102409E0002C0ADB0A2200232E
:10178000FEF78DFE039B30321A55641E50EA0102AB
:10179000F2D1641C039AC4F111031444119A012A72
:1017A00003D0012208430DD10AE0084304D00020F1
:1017B0004FF0110B119072E7A3EB0B056D1E0DE0BE
:1017C0005B4504DD4FF0000205F1010504E003DA9A
:1017D0004FF00002A5F10105002AECD00298119902
:1017E000C0E90231C0E9004579E70000000014407B
:1017F0000000F03F300000000000F0430000E03F38
:101800002DE9FF4F95B09B468946064600250FE21D
:10181000252877D100242746F84A0121059400E0C5
:10182000044316F8013F203B01FA03F01042F7D1C0
:1018300030782A2811D06FF02F033078A0F13002D1
:10184000092A16D8059A44F0020402EB820203EB3F
:1018500042021044761C0590EFE759F8042B0592DC
:10186000002A03DA504244F40054059044F0020484
:10187000761C30782E2816D116F8010F44F0040497
:101880002A280DD06FF02F023078A0F13003092BF9
:1018900009D807EB870302EB4303C718761CF3E76D
:1018A00059F8047B761C30786C280FD006DC4C2865
:1018B00017D068280DD06A2814D104E0742810D0FD
:1018C0007A280FD10DE044F400140AE044F48014A7
:1018D00001E044F440147278824202D104F580148D
:1018E000761C761C307866280BD013DC582877D00D
:1018F00009DC002875D04528F6D04628F4D04728C2
:101900001AD19DE118E0632835D0642879D0652884
:1019100012D195E1702873D008DC6728F1D06928CE
:101920006FD06E280DD06F2806D1B5E073282CD06B
:10193000752875D0782874D05A46179990476D1C31
:1019400075E1C4F30250022809D003280DD0D9F85C
:10195000001004280DD00D6009F1040967E1D9F8E1
:101960000010EA17C1E90052F6E7D9F800100D801F
:10197000F2E70D70F0E719F8041B8DF80010002055
:101980008DF80100EA46012003E059F804AB4FF05E
:10199000FF3061074FF0000102D40DE008F10101B2
:1019A0008846B9420FDA8045F8DB1AF8081000299A
:1019B000F4D108E008F1010188468142FADB1AF807
:1019C00008100029F6D105985B46A0EB08072146D0
:1019D0003846179A00F094FA284400EB080507E00F
:1019E0004DE029E10DE01AF8010B5A46179990478E
:1019F000B8F10108F7D25B4621463846179A13E141
:101A000042E00A220092C4F302524FF0000A022A76
:101A100008D059F804CB032A4FEAEC710AD00DE044
:101A200029E02AE009F1070121F00702F2E802C1EA
:101A3000914609E00FFA8CFC4FEAEC71042A03D1BD
:101A40004FFA8CFC4FEAEC71002907DA0A460021B4
:101A5000DCF1000C61EB02012D2202E0220504D52D
:101A60002B228DF80420012203E0E20701D020227E
:101A7000F7E7904659E00A2102E010220DE010211C
:101A80004FF0000A00910BE010224FF0000A44F0E2
:101A900004040827009203E008224FF0000A009295
:101AA000C4F30252022A05D059F804CB0021032ABC
:101AB00008D009E009F1070121F00702F2E802C1AC
:101AC000914605E01FFA8CFC042A01D10CF0FF0CB2
:101AD0004FF00008220728D5702806D0009B83F01D
:101AE000100353EA0A0305D00EE040228DF80420CB
:101AF000012208E05CEA010206D030228DF80420C1
:101B00008DF8050002229046009B83F0080353EAFB
:101B10000A030AD15CEA010201D1620705D530222D
:101B20008DF804204FF001087F1E582804D034A0FF
:101B300003900EA802900DE036A0F9E753466046E8
:101B4000009AFEF7ACFC84460398825C0298401E23
:101B5000029002705CEA0100F0D1029806A9081A0E
:101B600000F1200A600702D524F4803400E0012748
:101B7000574502DDA7EB0A0000E0002000EB0A0158
:101B8000009005984144401A0590E00306D45B4656
:101B90002146179A059800F0B3F90544002706E09E
:101BA00001A85A46C05D179990476D1C7F1C474598
:101BB000F6DBE0030CD55B462146179A059800F04A
:101BC0009FF9054404E030205A46179990476D1C50
:101BD0000099481E00900029F5DC08E0029802995F
:101BE0005A460078491C0291179990476D1CBAF12A
:101BF0000001AAF1010AF1DC65E1000009280100F9
:101C00003031323334353637383961626364656672
:101C10000000000030313233343536373839414234
:101C2000434445460000000000F058F90544761C86
:101C3000307800287FF4ECAD19B02846BDE8F08F6D
:101C4000620700D4062709F1070222F0070CFCE81E
:101C50000223E14603F000485FEA080C02D00FF2CD
:101C6000702C0DE05FEA045C02D50FF2682C07E0EF
:101C70005FEAC47C02D00FF2602C01E0AFF2700C7E
:101C80004FF0FF3823F00043CDF850C065280CD04A
:101C900006DC452809D046281DD047283DD13DE027
:101CA000662818D067287ED138E00021112F01DB8B
:101CB000112000E0781CCDE9000106A90EA8FFF76D
:101CC000DDFCDDE90F010E9A03910021009207F17E
:101CD000010A04914DE04FF000400097CDE901105A
:101CE00006A90EA8FFF7CAFCDDE90F0203920E9BBE
:101CF00011990022DDF80CA00093049211B9791C0F
:101D000000EB010AB7EB0A0004D4C0F1FF3007F181
:101D1000010A0490AAEB0700019044E0012F00DAC9
:101D200001270021112F01DD112000E03846CDE907
:101D3000000106A90EA8FFF7A1FCDDE90F010E9A2C
:101D40000391002104910092BA4621070CD4039913
:101D5000514500DA8A46BAF1010F05DD009AAAF171
:101D60000101515C302908D0B84202DA10F1040FA9
:101D700006DA0121CDE9011015E0AAF10101E9E738
:101D8000002805DC049901440491AAEB000102E05B
:101D9000411C514500DD8A460499401A401C0190BF
:101DA0004FF000400290200704D40198504501DB19
:101DB000CDF8048000208DF84F0002980DF14F07F8
:101DC000B0F1004F25D02B200E9002984FF0020862
:101DD00000280CDA404202902D200E9007E00A21E4
:101DE0000298FEF746FB3031029007F8011DB8F16A
:101DF0000001A8F10108F2DC02980028EFD1791E59
:101E00000E980870307800F0200040F0450007F888
:101E1000020D12A8C01B00F107081498007800B149
:101E2000012000EB0A01019801EBE07105984144A3
:101E3000401A401E0590E00306D45B462146179ADF
:101E4000059800F05DF805441498007818B15A46DA
:101E5000179990476D1CE00324D55B462146179ADD
:101E6000059800F04DF805441CE00498002807DBB5
:101E7000DDE90301884203DD0098405C179901E029
:101E8000179930205A469047049805F10105401CE7
:101E900004900198401E019004D12E205A461799B3
:101EA00090476D1CBAF10001AAF1010ADDDC05E0E2
:101EB00017F8010B5A46179990476D1CB8F10001AD
:101EC000A8F10108F4DC5B462146179A0598ABE6B9
:101ED0002D0000002B000000200000002DE9F04143
:101EE000044600251E461746880404D405E03946FA
:101EF0002020B0476D1C641EF9D52846BDE8F0814E
:101F00002DE9F041044600251E469046C80301D540
:101F1000302700E02027880404D505E041463846F4
:101F2000B0476D1C641EF9D52846BDE8F08100005D
:101F300030B500242DED028B87B09FED4B8A6B46A8
:101F400001221E21D62000F0AFF92046641CE4B225
:101F50001E2803D89DF80000C007F0D06B46012270
:101F60001021D62000F0A0F99DF8000010F00C0020
:101F70008DF800000ED004280AD0082802D00C28C2
:101F800008D102E09FED398A04E09FED398A01E033
:101F90009FED388A06AB01222921D62000F084F972
:101FA00005AB01222821D62000F07EF99DF814000F
:101FB0009DF8181004AB40EA012005B201222B2144
:101FC000D62000F071F903AB01222A21D62000F0BF
:101FD0006BF99DF80C009DF8101002AB40EA01204F
:101FE00004B201222D21D62000F05EF901AB0122BE
:101FF0002C21D62000F058F900EE105A9DF804006C
:102000009DF80810B8EEC00A40EA012003B220EEA5
:10201000080ABDEEC00A10EE100A01B2002000F05E
:102020006FF900EE104AB8EEC00A20EE080ABDEEC5
:10203000C00A10EE100A01B2012000F061F900EEB2
:10204000103AB8EEC00A20EE080ABDEEC00A10EE43
:10205000100A01B2022000F053F90520FEF7CAFF72
:1020600007B0BDEC028B30BD23DB793D23DBF93DAE
:1020700023DB793E23DBF93E0100094A4FF00000E3
:1020800008D0012909D0022903D1508AD1880844F7
:1020900000B27047D0895188F9E7108A9188F6E735
:1020A00034000020FEB5FFF743FF00F031F80220B6
:1020B00000F0E4F80746012000F0E0F806460020B2
:1020C00000F0DCF805460220FFF7D6FF03460120AA
:1020D000FFF7D2FF04460020FFF7CEFF8DE8E000B7
:1020E0000146224601A0FFF7A9FAFEBD4143433A4B
:1020F0002535642C2535642C2535642C2047595210
:102100004F3A2535642C2535642C2535640D0A009D
:1021100070B500242DED028B88B09FED538A6B467D
:1021200001221E21D62000F0BFF8641CE4B21E2C50
:1021300003D89DF800008007F1D56B4601221121DC
:10214000D62000F0B1F89DF8000000F00C008DF8EA
:10215000000004280AD001DC80B904E0082808D077
:102160000C280BD108E09FED418A07E09FED408AE3
:1021700004E09FED408A01E09FED3F8A02AB01221F
:102180002321D62000F090F801AB01222221D62095
:1021900000F08AF89DF8080004AB000206B29DF832
:1021A0000400012206432521D62000F07DF803AB70
:1021B00001222421D62000F077F89DF8100006AB0C
:1021C000000204B29DF80C00012204432721D6200E
:1021D00000F06AF805AB01222621D62000F064F851
:1021E00000EE106A9DF818004FF47A73B8EEC00A3A
:1021F000000205B29DF8140020EE080A0543BDEE6A
:10220000C00A10EE100A00B290FBF3F001B20020F9
:1022100000F0A6F800EE104AB8EEC00A20EE080A58
:10222000BDEEC00A10EE100A00B290FBF3F001B24E
:10223000012000F095F800EE105AB8EEC00A20EE2A
:10224000080ABDEEC00A10EE100A00B290FBF3F0CF
:1022500001B2022000F084F80520FEF7CBFE08B0A2
:10226000BDEC028B70BD000000008C4000000C41F2
:1022700000008C4100000C4200008C420100094A21
:102280004FF0000008D0012909D0022903D1108B9A
:102290009189084400B27047908A1189F9E7D08A81
:1022A0005189F6E73400002030B41C46134622461C
:1022B00030BC4008FEF74EBE08B56B4601220F2128
:1022C000D620FFF7F1FF9DF8001008A0FFF7B6F940
:1022D00000F0F9F800F0AEF800F050F800F065F802
:1022E00000F0D8F800F08FF808BD000057484F5FA5
:1022F000414D5F49203A2030782532580D0A0000C0
:10230000054A28B1012805D0022800D15182704722
:10231000D1817047118270473400002008B56B46A8
:1023200001220F21D620FFF7BFFF9DF8001007A064
:10233000FFF784F900F07EF800F020F800F035F89F
:1023400000F08FF800F048F808BD000057484F5FD4
:10235000414D5F49203A2030782532580D0A00005F
:10236000054A28B1012805D0022800D11183704701
:1023700091827047D18270473400002008B5002058
:102380008DF800006B4601221221D620FFF78CFF4A
:102390009DF800006B4640F040008DF800000122DF
:1023A0001221D62000F0ADF808BD08B500208DF848
:1023B00000006B4601220A21D620FFF775FF9DF829
:1023C00000006B4620F007008DF8000001220A2172
:1023D000D62000F096F808BD08B500208DF8000062
:1023E0006B4601221121D620FFF75EFF9DF8000009
:1023F0006B4620F00C008DF8000001221121D62040
:1024000000F07FF808BD08B500208DF800006B468D
:1024100001221021D620FFF747FF9DF800006B46F0
:1024200020F00C008DF8000001221021D62000F0D1
:1024300068F808BD08B500208DF800006B46012241
:102440001221D620FFF730FF9DF800006B4640F0C8
:1024500004008DF8000001221221D62000F051F86E
:1024600008BD08B500208DF800006B46012211213F
:10247000D620FFF719FF9DF800006B4620F0F00012
:1024800040F080008DF8000001221121D62000F0DC
:1024900038F808BD08B500208DF800006B46012211
:1024A0001021D620FFF700FF9DF800006B4620F0BA
:1024B000F00040F080008DF8000001221021D620AD
:1024C00000F01FF808BD08B500208DF800006B462D
:1024D00001221221D620FFF7E7FE9DF800006B468F
:1024E00040F001008DF8000001221221D62000F0FA
:1024F00008F808BD10B5FFF7DFFEBDE81040FFF794
:102500000DBF30B41C461346224630BC4008FEF7CF
:102510003DBD10B50446FEF7DBFD204610BD0000B2
:10252000FEF77AFDFEF71AFFFEF7E8FBFEF74CFD1B
:10253000FEF75EFEFFF7DEFF034CFFF7B3FD2068FA
:1025400080F001002060F8E7C449004010B504465F
:10255000016810A0FFF772F811A06168FFF76EF82C
:1025600012A0A168FFF76AF813A0E168FFF766F808
:1025700014A02169FFF762F815A06169FFF75EF802
:1025800016A0A169FFF75AF8E169BDE8104016A04E
:10259000FFF754B8723020203D20307825780A00AB
:1025A000723120203D20307825780A0072322020B8
:1025B0003D20307825780A00723320203D20307885
:1025C00025780A00723132203D20307825780A00C3
:1025D0006C7220203D20307825780A00706320201E
:1025E0003D20307825780A00707372203D203078C5
:1025F00025780A00001BB7000000000000800000E2
:10260000001BB700001BB7000000000000800000A6
:10261000001BB700001BB700000000000080000096
:10262000001BB700001BB700008000000000000086
:102630000000000000000000102700000000000063
:10264000001BB7006426000000000020800000008E
:102650005C160000E4260000800000200008000056
:102660006C160000001BB7000C000000001BB70038
:10267000001BB700008000000000000010270000D1
:10268000000000000000000000000000001BB70078
:10269000000000000000000000000000000000003A
:1026A000000000000000000000000000000000002A
:1026B000000000000000000000000000000000001A
:1026C000000000000000000000000000000000000A
:1026D00000000000000000000000000000000000FA
:0426E00000000000F6
:0400000500000225D0
:00000001FF
